S01A000049525F6368696E6874687563315F436F70792E7372656327
S11300000C9463000C94350A0C945C0A0C948B00D9
S11300100C948B000C948B000C948B000C948B0030
S11300200C948B000C948B000C948B000C948B0020
S11300300C948B000C948B000C948B000C948B0010
S11300400C94A4060C948B000C9412050C94440597
S11300500C948B000C948B000C948B000C948B00F0
S11300600C948B000C948B0000000008000201002B
S1130070000304070000000000000000010204085F
S113008010204080010204081020010204081020FE
S1130090040404040404040402020202020203032A
S11300A003030303000000002300260029000000CE
S11300B00000250028002B00000000002400270079
S11300C02A009F02740511241FBECFEFD8E0DEBFC3
S11300D0CDBF12E0A0E0B1E0E8E7F7E102C005908F
S11300E00D92A23BB107D9F728E0A2EBB2E001C020
S11300F01D92AC3BB207E1F710E0C3E6D0E004C0C8
S11301002197FE010E94950BC136D107C9F70E94C1
S1130110A2050C94BA0B0C940000CF92DF92EF92DC
S1130120FF920F931F93CF93DF93EC017B016A013E
S1130130E881F981369780819181622F8C0F9D1F10
S11301400E945E088701E12CF12C88819981EC14CE
S1130150FD04B1F0F80160817181FC013697808162
S113016091818C0F9D1FE0FE03C00E94CD0802C048
S11301700E94AE08FFEFEF1AFF0A0E5F1F4FE5CF94
S1130180FC0136978081918160E070E08C0F9D1FA7
S1130190DF91CF911F910F91FF90EF90DF90CF905F
S11301A00C94CD0826E040E855E260E070E086E873
S11301B094E00E94AD0468E97AE388E794E00E9441
S11301C017084AE050E06DEB71E086E894E00C9487
S11301D09D060F931F93CF93DF93DC01FB011182E4
S11301E0108261E070E0E9018881998186179707A0
S11301F058F1EA0108811981C801D4E096958795E0
S1130200DA95E1F701301F40A0F0906F9C93808154
S11302109181019691838083EA0188819981C4E068
S113022096958795CA95E1F711968C931197129636
S113023001C08D93808191810196918380836F5F4A
S11302407F4F4E5F5F4FCFCFDF91CF911F910F91C3
S113025008950F931F93CF93DF93E90119821882B6
S1130260FA0101E010E0DB012D913C9120173107E8
S1130270D8F1DC014C91242F207F50E0203FE1F4A1
S1130280542F44275295507F5183408311962C91CB
S1130290B0E12B9F90011124422B532B48605183D2
S11302A040830296288139812F5F3F4F3983288309
S11302B00E5F1F4F3296D7CF24E0440F551F2A9567
S11302C0E1F748604830510519F05183408302C07A
S11302D0118210820196288139812F5F3F4F398323
S11302E028830F5F1F4FE6CFDF91CF911F910F91AE
S11302F00895CF93DF93C0E0D0E08091B402909151
S1130300B502C817D90748F4FE01EA54FD4F6081CD
S1130310CE010E94AC0B2196F0CF8091B402909153
S1130320B502692F8EEF91E00E94AC0B6091B4028C
S11303307091B5028FEF91E00E94AC0B64E071E024
S113034086E894E0DF91CF910C94F005CF93DF938E
S1130350C0E0D0E08091B2029091B302C817D907EF
S113036050F4FE01EA54FD4F6081CE019E5F0E946D
S1130370AC0B2196EFCF8091B2029091B302692F1A
S11303808FEF93E00E94AC0B6091B2027091B302C4
S11303908EEF93E00E94AC0B64E171E086E894E098
S11303A0DF91CF910C94F005CF93DF938EEF91E022
S11303B00E94A40B90E09093B5028093B402C09184
S11303C0B402D091B5028FEF91E00E94A40BDC2F10
S11303D0CC27C82BD093B502C093B402C0E0D0E0C0
S11303E08091B4029091B502C817D90748F4CE01A0
S11303F00E94A40BFE01EA54FD4F80832196F0CFA6
S113040065E271E086E894E0DF91CF910C94F00509
S113041064E471E086E894E00E94F0050E94D4014F
S113042020EB38E048E355E064EB72E086EB92E0C1
S11304300E9429014091B0085091B10826E268E376
S113044075E08DE794E00C948D00CF93DF938FEFEC
S113045093E00E94A40B90E09093B3028093B202C5
S1130460C091B202D091B3028EEF93E00E94A40B2C
S1130470DC2FCC27C82BD093B302C093B202C0E0C8
S1130480D0E08091B2029091B302C817D90750F41A
S1130490CE019E5F0E94A40BFE01EA54FD4F8083AF
S11304A02196EFCF68E571E086E894E0DF91CF9183
S11304B00C94F005CF93DF9368E771E086E894E04D
S11304C00E94F0050E94250220EB38E048E355E045
S11304D062EB72E086EB92E00E9429016CEE71E01F
S11304E086E894E00E94F005C0E0D0E08091B00876
S11304F09091B1088C179D07A8F0FE01EE0FFF1F25
S1130500EA5CFA4F608171814AE050E086E894E049
S11305100E944F066DE871E086E894E00E94F005C1
S11305202196E4CF4091B0085091B10826E268E3E7
S113053075E08DE794E0DF91CF910C948D008FE707
S113054094E00E94890887E992E090937E04809366
S11305507D0462E088E794E00C949909CF93DF93DB
S113056088E794E00E946F0960E971E086E894E00E
S11305700E94F00588E794E00E94B709882309F4F3
S11305804FC020EB38E048E355E064EB72E086EBC3
S113059092E00E94E900C0E0D0E08091B008909120
S11305A0B1088C179D07A8F0FE01EE0FFF1FEA5C4F
S11305B0FA4F608171814AE050E086E894E00E943D
S11305C04F066DE871E086E894E00E94F0052196FC
S11305D0E4CF6091B0087091B1084AE050E086E839
S11305E094E00E944F0660ED77E080E090E00E9486
S11305F013078091B4029091B502853F914038F081
S113060064EA71E086E894E00E94F00509C00E9463
S113061079016EEE71E086E894E00E94F0050EC068
S113062086E894E00E94D103892B09F4A3CF86E8DD
S113063094E00E94EB03833309F09CCF88E794E0B5
S11306400E94EC0861E172E086E894E00E94F00503
S1130650DF91CF910895CF93DF9388E794E00E94D0
S11306606F0964E272E086E894E00E94F00588E78E
S113067094E00E94B709882309F43FC020EB38E0D6
S113068048E355E062EB72E086EB92E00E94E900F9
S1130690C0E0D0E08091B0089091B1088C179D071C
S11306A0A8F0FE01EE0FFF1FEA5CFA4F6081718132
S11306B04AE050E086E894E00E944F066DE871E05D
S11306C086E894E00E94F0052196E4CF8091B2027E
S11306D09091B302853F914038F064EA71E086E876
S11306E094E00E94F00509C00E94A60169E372E04B
S11306F086E894E00E94F0050EC086E894E00E942B
S1130700D103892B09F4B3CF86E894E00E94EB036C
S1130710833309F0ACCF88E794E00E94EC086DE5E0
S113072072E086E894E00E94F005DF91CF9108958D
S113073086E894E00E94D103892B91F186E894E045
S11307400E94EB0399278233910571F02CF4C19731
S113075089F40E94AE0214C08433910541F0C59718
S113076049F40E945A020CC00E942B0309C00E9443
S1130770080206C061E772E086E894E00E94F00592
S113078086E894E00E948B0486E894E00E94D103FA
S1130790181619062CF486E894E00E94EB03F4CFB3
S11307A00895FC01918D228D892F90E0805C9F4FEC
S11307B0821B91098F7399270895FC01918D828D75
S11307C0981731F0828DE80FF11D858D90E0089522
S11307D08FEF9FEF0895FC01918D828D981761F042
S11307E0828DDF01A80FB11D5D968C91928D9F5F64
S11307F09F73928F90E008958FEF9FEF0895FC010F
S1130800538D448D252F30E0842F90E0821B930B71
S1130810541710F0CF960895019708958AE695E04D
S1130820892B49F080E090E0892B29F00E946A0529
S113083081110C9400000895FC01848DDF01A80F40
S1130840B11DA35ABF4F2C91848D90E001968F73F4
S11308509927848FA689B7892C93A089B1898C9113
S1130860837080648C93938D848D981306C0028862
S1130870F389E02D80818F7D80830895EF92FF922C
S11308800F931F93CF93DF93EC0181E0888F9B8DAF
S11308908C8D981305C0E889F989808185FD26C06F
S11308A0F62E0B8D10E00F5F1F4F0F731127E02EF4
S11308B08C8DE8120CC00FB607FCFACFE889F989D1
S11308C0808185FFF5CFCE010E941C04F1CF8B8D72
S11308D0FE01E80FF11DE35AFF4FF0829FB7F89431
S11308E00B8FEA89FB89808180620AC09FB7F894E4
S11308F0EE89FF896083E889F98980818370806447
S113090080839FBF81E090E0DF91CF911F910F9191
S1130910FF90EF900895CF93DF93EC01888D8823A7
S1130920C9F0EA89FB89808185FD05C0A889B98958
S11309308C9186FD0FC00FB607FCF5CF808185FF33
S1130940F2CFA889B9898C9185FFEDCFCE010E94A1
S11309501C04E7CFDF91CF910895CF92DF92EF92FD
S1130960FF921F93CF93DF93EC016A017B01122F57
S1130970E889F98982E080834115514E610571054A
S1130980B1F060E079E08DE390E0A70196010E9468
S1130990540BDA01C9010197A109B109B695A795CC
S11309A0979587959C01211580E13807A8F0E8897F
S11309B0F989108260E874E88EE190E0A70196015D
S11309C00E94540BDA01C9010197A109B109B69536
S11309D0A795979587959C01EC85FD853083EE85D9
S11309E0FF852083188EEC89FD891083EA89FB89B1
S11309F0808180618083EA89FB898081886080832B
S1130A00EA89FB89808180688083EA89FB89808107
S1130A108F7D8083DF91CF911F91FF90EF90DF90C6
S1130A20CF9008951F920F920FB60F9211242F9317
S1130A308F939F93EF93FF93E0919604F091970423
S1130A408081E0919C04F0919D0482FD12C090810C
S1130A5080919F048F5F8F732091A004821751F0BF
S1130A60E0919F04F0E0EA57FB4F958F80939F0439
S1130A7001C08081FF91EF919F918F912F910F90F1
S1130A800FBE0F901F9018951F920F920FB60F92E2
S1130A9011242F933F934F935F936F937F938F937F
S1130AA09F93AF93BF93EF93FF9386E894E00E94E4
S1130AB01C04FF91EF91BF91AF919F918F917F9112
S1130AC06F915F914F913F912F910F900FBE0F90B7
S1130AD01F90189586E894E00E94D10321E0892BA9
S1130AE009F420E0822F0895E6E8F4E013821282EC
S1130AF088EE93E0A0E0B0E084839583A683B78377
S1130B008BE992E09183808385EC90E095878487DC
S1130B1084EC90E09787868780EC90E0918B808BC3
S1130B2081EC90E0938B828B82EC90E0958B848BAC
S1130B3086EC90E0978B868B118E128E138E148E1A
S1130B40089508950E945A070E94A1050E94D200A8
S1130B50CEE0D4E00E9498032097E1F30E940E04B3
S1130B60F9CFCF92DF92EF92FF920F931F93CF931F
S1130B70DF936C017A018B01C0E0D0E0CE15DF0574
S1130B8081F0D8016D918D01D601ED91FC91019018
S1130B90F081E02DC6010995892B11F02196EECF45
S1130BA07E01C701DF91CF911F910F91FF90EF90CC
S1130BB0DF90CF9008956115710579F0FB010190E4
S1130BC00020E9F73197AF01461B570BDC01ED918B
S1130BD0FC910280F381E02D099480E090E0089577
S1130BE00C94DB05DC01ED91FC910190F081E02D8A
S1130BF009948F929F92AF92BF92EF92FF920F93BC
S1130C001F93CF93DF93CDB7DEB7A1970FB6F894B8
S1130C10DEBF0FBECDBF7C01FA01CB0119A2223089
S1130C2008F42AE08E010F5D1F4F822E912CA12C17
S1130C30B12CBF01A50194010E94540BF901CA0112
S1130C40015011096A3010F4605D01C0695CD8017B
S1130C506C93232B242B252B61F7B801C7010E9429
S1130C60DB05A1960FB6F894DEBF0FBECDBFDF91B2
S1130C70CF911F910F91FF90EF90BF90AF909F90F5
S1130C808F9008952115310541F4DC01ED91FC911B
S1130C900190F081E02D642F09940C94F9059A01D8
S1130CA0AB0160E070E00C944206CF92DF92EF92C9
S1130CB0FF920F931F93CF93DF932115310581F496
S1130CC0DC01ED91FC910190F081E02D642FDF9126
S1130CD0CF911F910F91FF90EF90DF90CF900994E7
S1130CE02A30310501F577FF1DC06A017B01EC0153
S1130CF06DE20E94F2058C0144275527BA014C1974
S1130D005D096E097F092AE0CE010E94F905800F72
S1130D10911FDF91CF911F910F91FF90EF90DF9082
S1130D20CF9008952AE0DF91CF911F910F91FF900A
S1130D30EF90DF90CF900C94F9059A01AB01770FF7
S1130D40660B770B0C9455061F920F920FB60F92F9
S1130D5011242F933F938F939F93AF93BF938091CD
S1130D60240590912505A0912605B0912705309181
S1130D70230523E0230F2D3720F40196A11DB11D77
S1130D8005C026E8230F0296A11DB11D209323055B
S1130D908093240590932505A0932605B0932705F9
S1130DA08091280590912905A0912A05B0912B05E1
S1130DB00196A11DB11D8093280590932905A09348
S1130DC02A05B0932B05BF91AF919F918F913F91CD
S1130DD02F910F900FBE0F901F9018953FB7F89466
S1130DE08091280590912905A0912A05B0912B05A1
S1130DF026B5A89B05C02F3F19F00196A11DB11D72
S1130E003FBFBA2FA92F982F8827820F911DA11DAC
S1130E10B11DBC01CD0142E0660F771F881F991FE9
S1130E204A95D1F708958F929F92AF92BF92CF9235
S1130E30DF92EF92FF926B017C010E94EE064B0160
S1130E405C01C114D104E104F10401F10E94010A1E
S1130E500E94EE06DC01CB0188199909AA09BB0995
S1130E60883E9340A105B10560F321E0C21AD10880
S1130E70E108F10888EE880E83E0981EA11CB11CDD
S1130E80C114D104E104F10419F7DBCFFF90EF9012
S1130E90DF90CF90BF90AF909F908F900895823055
S1130EA0910538F0880F991F880F991F05970197AE
S1130EB0F1F70895789484B5826084BD84B5816027
S1130EC084BD85B5826085BD85B5816085BDEEE64E
S1130ED0F0E0808181608083E1E8F0E0108280812D
S1130EE082608083808181608083E0E8F0E080819B
S1130EF081608083E1EBF0E0808184608083E0EBBB
S1130F00F0E0808181608083EAE7F0E080818460A2
S1130F1080838081826080838081816080838081FE
S1130F20806880831092C1000895ECE2F5E0178296
S1130F30118684E08093BA08089562E080912C05BC
S1130F400E94AC0A1092B1081092B00881E080931C
S1130F50BA081092BB080895ECE2F5E0178226E384
S1130F6035E03093B3082093B208118228E73EE1BC
S1130F70338322832CE930E03583248322E330E079
S1130F80DC0113963C932E9312971086168284E00C
S1130F908093BA0808950F931F93CF93DF93109211
S1130FA03405209135055091B2084091B3082223AD
S1130FB029F0252F342F109235050AC02091B0084E
S1130FC03091B1083093B5082093B40826E335E096
S1130FD0A52FB42FF90140E050E02091B4083091DE
S1130FE0B50842175307D8F420813181269F800128
S1130FF0279F100D369F100D1124EC012A813B818F
S113100040FF03C0319521953109200F311F1196FE
S11310103C932E9312964F5F5F4F3296DECF109221
S1131020330581E0DF91CF911F910F910895709363
S11310302F0560932E050895CF93C1E0C093340526
S113104084E08093BA0880912D05882321F1809152
S11310503305882301F14091B0085091B108440F41
S1131060551F66E375E08091B2089091B3080E9421
S11310709B0B8091B0089091B1089093B508809330
S1131080B40810923305C09335051092B10810923C
S1131090B008C093BA08CF9108958091320588238F
S11310A061F08091B0089091B10880FF02C061E0C6
S11310B001C060E08DE00C94E80A0895CF93DF93BB
S11310C0C62FD1E0D093BB081092700061E083E09A
S11310D00E94AC0A60E083E00E94E80A2C2F30E012
S11310E040E050E060E47FE180E090E00E94760B15
S11310F0D093B00089E08093B1002093B3008BEAD1
S1131100289F212D112426952093B400DF91CF919F
S1131110089561E083E00E94AC0A60E083E00C94EF
S1131120E80ACF93DF930097B1F081382EE392075A
S113113070F068EE73E00E94400BEB010E944F07D1
S1131140BE0180E090E0DF91CF910C941307DF9112
S1131150CF910C944F07DF91CF9108950F931F9374
S1131160CF93DF93EC018B01E0EBF0E080818062B0
S11311708083CB010E94910888819981AA81BB81D7
S1131180800F911FA11DB11D88839983AA83BB83FE
S1131190DF91CF911F910F9108950F931F93CF93D8
S11311A0DF93EC018B01E0EBF0E080818F7D8083A5
S11311B0CB010E94910888819981AA81BB81800F0B
S11311C0911FA11DB11D88839983AA83BB83DF91DD
S11311D0CF911F910F910895CF93DF93EC018C81F0
S11311E00E94230ACE01DF91CF910C949507CF92F0
S11311F0DF92EF92FF92CF93DF9300D000D0CDB770
S1131200DEB70E94EE0669837A838B839C83C98050
S1131210DA80EB80FC808091B6089091B708A091A9
S1131220B808B091B908C81AD90AEA0AFB0A809129
S1131230BA08843009F448C0853019F08130F9F4D3
S113124015C00E944D088091B0089091B10880FDAE
S113125016C080912E0590912F05A0E0B0E08C156A
S11312609D05AE05BF0558F481E02CC080912C0586
S11312700E94170B892B41F585E08093BA08E09111
S1131280B008F091B108EE0FFF1FEA5CFA4FD1826B
S1131290C08289819A81AB81BC818093B608909386
S11312A0B708A093B808B093B9088091B00890919A
S11312B0B10801969093B1088093B0088D3B91409A
S11312C018F082E00E941C080F900F900F900F906E
S11312D0DF91CF91FF90EF90DF90CF900895CF935F
S11312E0DF9320913405211121C021E0209333059F
S11312F02091BA08243021F02091BB082223B1F0B8
S1131300EC010E949D070E94EE066093B60870935C
S1131310B7088093B8089093B90841E050E067EFAC
S113132078E08C81DF91CF910C94030ADF91CF9107
S113133008950F931F93CF938C01C62F8DEA92E0EB
S1131340F80191838083C8010E94AC07C23021F068
S1131350C33021F08FEF03C080E001C081E0F801C9
S11313608483C0932C05CF911F910F910895CF9240
S1131370DF92EF92FF920F931F93CF938C01C09152
S11313803405CC2329F061E070E00E94CB0730C023
S11313908091BA08853061F580912C050E94170B65
S11313A0892B31F1F894C090B608D090B708E0903A
S11313B0B808F090B90878940E94EE06AB01BC011D
S11313C04C195D096E097F0980912E0590912F05B6
S11313D0A0E0B0E084179507A607B70748F483E0B8
S11313E00E941C0861E070E0C8010E94CB07C1E0C4
S11313F08C2FCF911F910F91FF90EF90DF90CF90A2
S11314000895089508958230E8F4E82FF0E0EE0F8F
S1131410FF1FE050FF4F71836083813041F0809162
S113142069008C7F482B40936900E89A0895809165
S11314306900837F440F551F440F551F482B409369
S11314406900E99A0895823078F4813011F0E898BF
S113145001C0E998E82FF0E0EE0FFF1FE050FF4FC6
S113146082E09AE09183808308951F920F920FB6D1
S11314700F9211242F933F934F935F936F937F9316
S11314808F939F93AF93BF93EF93FF93E0910001EA
S1131490F09101010995FF91EF91BF91AF919F9157
S11314A08F917F916F915F914F913F912F910F9009
S11314B00FBE0F901F9018951F920F920FB60F92A8
S11314C011242F933F934F935F936F937F938F9345
S11314D09F93AF93BF93EF93FF93E0910201F09139
S11314E003010995FF91EF91BF91AF919F918F9166
S11314F07F916F915F914F913F912F910F900FBE0C
S11315000F901F901895833081F028F4813099F062
S11315108230A1F008958730A9F08830B9F0843082
S1131520D1F4809180008F7D03C0809180008F77FB
S113153080938000089584B58F7702C084B58F7D31
S113154084BD08958091B0008F7703C08091B0006E
S11315508F7D8093B0000895CF93DF9390E0FC01DA
S1131560E458FF4F2491FC01E057FF4F84918823F6
S113157061F190E0880F991FFC01E854FF4FC59179
S1131580D491FC01E255FF4FA591B491611109C0BA
S11315909FB7F8948881209582238883EC912E2329
S11315A00BC0623061F49FB7F8948881322F309574
S11315B083238883EC912E2B2C939FBF06C08FB777
S11315C0F894E8812E2B28838FBFDF91CF91089563
S11315D01F93CF93DF93282F30E0F901E859FF4F91
S11315E08491F901E458FF4FD491F901E057FF4F7A
S11315F0C491CC23C1F0162F81110E94830AEC2FD1
S1131600F0E0EE0FFF1FE255FF4FA591B4919FB795
S1131610F894111104C08C91D095D82302C0EC9198
S1131620DE2BDC939FBFDF91CF911F910895CF9361
S1131630DF93282F30E0F901E859FF4F8491F90135
S1131640E458FF4FD491F901E057FF4FC491CC23E4
S113165091F081110E94830AEC2FF0E0EE0FFF1F3E
S1131660EC55FF4FA591B491EC91ED2381E090E00E
S113167021F480E002C080E090E0DF91CF910895F2
S1131680AA1BBB1B51E107C0AA1FBB1FA617B707A4
S113169010F0A61BB70B881F991F5A95A9F78095C0
S11316A09095BC01CD010895A1E21A2EAA1BBB1B83
S11316B0FD010DC0AA1FBB1FEE1FFF1FA217B3071A
S11316C0E407F50720F0A21BB30BE40BF50B661F30
S11316D0771F881F991F1A9469F7609570958095F4
S11316E090959B01AC01BD01CF010895052E97FB98
S11316F01EF400940E948D0B57FD07D00E94540BDA
S113170007FC03D04EF40C948D0B50954095309506
S113171021953F4F4F4F5F4F089590958095709559
S113172061957F4F8F4F9F4F0895EE0FFF1F0590D8
S1131730F491E02D0994FB01DC0102C001900D92AB
S113174041505040D8F70895F999FECF92BD81BD1C
S1131750F89A992780B50895262FF999FECF1FBAD4
S113176092BD81BD20BD0FB6F894FA9AF99A0FBEC6
S10B177001960895F894FFCFDF
S1131778020A020A53617665206F6E207369676EE8
S1131788616C0A0053617665206F66662073696729
S11317986E616C0A00526573746F7265206F6E20F7
S11317A87369676E616C2066726F6D20454550528F
S11317B84F4D0A004F6E2061697220636F6E646931
S11317C874696F6E65720A00526573746F7265206E
S11317D86F6666207369676E616C2066726F6D2030
S11317E8454550524F4D0A004F6666206169722084
S11317F8636F6E646974696F6E65720A002C2000E9
S1131808537461727420726563656976696E6720C2
S11318186F6E0A000A20636F6D7072657373656476
S1131828207369676E616C20697320746F6F20621E
S11318386967203E20353030627974652C206361F5
S11318486E2774206E6F7420736176652069742026
S1131858696E746F20454550524F4D200A000A2086
S1131868526563656976696E67204F6E2073696790
S11318786E616C207375636365737366756C200A97
S11318880053746F7020726563656976696E6720AA
S11318986F6E0A00537461727420726563656976A9
S11318A8696E67206F66660A000A20526563656977
S11318B876696E67204F6666207369676E616C206F
S11318C87375636365737366756C200A0053746F6C
S11318D87020726563656976696E67206F66660A4B
S11318E800496E76616C69642055415254207265D2
S11318F863656976696E672076616C75650A009719
S113190802020000000000000000003E04B105FFD0
S1131918038B04D103EB03DD03000000006F09EC23
S10519280800B1
S9030000FC
